{
  "abi": [
    {
      "type": "constructor",
      "inputs": [
        {
          "name": "_token",
          "type": "address",
          "internalType": "address"
        }
      ],
      "stateMutability": "nonpayable"
    },
    {
      "type": "function",
      "name": "BALANCE_PROOF_TYPEHASH",
      "inputs": [],
      "outputs": [
        {
          "name": "",
          "type": "bytes32",
          "internalType": "bytes32"
        }
      ],
      "stateMutability": "view"
    },
    {
      "type": "function",
      "name": "DOMAIN_SEPARATOR",
      "inputs": [],
      "outputs": [
        {
          "name": "",
          "type": "bytes32",
          "internalType": "bytes32"
        }
      ],
      "stateMutability": "view"
    },
    {
      "type": "function",
      "name": "MAX_CHANNEL_LIFETIME",
      "inputs": [],
      "outputs": [
        {
          "name": "",
          "type": "uint256",
          "internalType": "uint256"
        }
      ],
      "stateMutability": "view"
    },
    {
      "type": "function",
      "name": "MAX_SETTLEMENT_TIMEOUT",
      "inputs": [],
      "outputs": [
        {
          "name": "",
          "type": "uint256",
          "internalType": "uint256"
        }
      ],
      "stateMutability": "view"
    },
    {
      "type": "function",
      "name": "MIN_SETTLEMENT_TIMEOUT",
      "inputs": [],
      "outputs": [
        {
          "name": "",
          "type": "uint256",
          "internalType": "uint256"
        }
      ],
      "stateMutability": "view"
    },
    {
      "type": "function",
      "name": "WITHDRAW_PROOF_TYPEHASH",
      "inputs": [],
      "outputs": [
        {
          "name": "",
          "type": "bytes32",
          "internalType": "bytes32"
        }
      ],
      "stateMutability": "view"
    },
    {
      "type": "function",
      "name": "channelCounter",
      "inputs": [],
      "outputs": [
        {
          "name": "",
          "type": "uint256",
          "internalType": "uint256"
        }
      ],
      "stateMutability": "view"
    },
    {
      "type": "function",
      "name": "channels",
      "inputs": [
        {
          "name": "",
          "type": "bytes32",
          "internalType": "bytes32"
        }
      ],
      "outputs": [
        {
          "name": "participant1",
          "type": "address",
          "internalType": "address"
        },
        {
          "name": "participant2",
          "type": "address",
          "internalType": "address"
        },
        {
          "name": "settlementTimeout",
          "type": "uint256",
          "internalType": "uint256"
        },
        {
          "name": "state",
          "type": "uint8",
          "internalType": "enum TokenNetwork.ChannelState"
        },
        {
          "name": "closedAt",
          "type": "uint256",
          "internalType": "uint256"
        },
        {
          "name": "openedAt",
          "type": "uint256",
          "internalType": "uint256"
        }
      ],
      "stateMutability": "view"
    },
    {
      "type": "function",
      "name": "closeChannel",
      "inputs": [
        {
          "name": "channelId",
          "type": "bytes32",
          "internalType": "bytes32"
        },
        {
          "name": "balanceProof",
          "type": "tuple",
          "internalType": "struct TokenNetwork.BalanceProof",
          "components": [
            {
              "name": "channelId",
              "type": "bytes32",
              "internalType": "bytes32"
            },
            {
              "name": "nonce",
              "type": "uint256",
              "internalType": "uint256"
            },
            {
              "name": "transferredAmount",
              "type": "uint256",
              "internalType": "uint256"
            },
            {
              "name": "lockedAmount",
              "type": "uint256",
              "internalType": "uint256"
            },
            {
              "name": "locksRoot",
              "type": "bytes32",
              "internalType": "bytes32"
            }
          ]
        },
        {
          "name": "signature",
          "type": "bytes",
          "internalType": "bytes"
        }
      ],
      "outputs": [],
      "stateMutability": "nonpayable"
    },
    {
      "type": "function",
      "name": "cooperativeSettle",
      "inputs": [
        {
          "name": "channelId",
          "type": "bytes32",
          "internalType": "bytes32"
        },
        {
          "name": "proof1",
          "type": "tuple",
          "internalType": "struct TokenNetwork.BalanceProof",
          "components": [
            {
              "name": "channelId",
              "type": "bytes32",
              "internalType": "bytes32"
            },
            {
              "name": "nonce",
              "type": "uint256",
              "internalType": "uint256"
            },
            {
              "name": "transferredAmount",
              "type": "uint256",
              "internalType": "uint256"
            },
            {
              "name": "lockedAmount",
              "type": "uint256",
              "internalType": "uint256"
            },
            {
              "name": "locksRoot",
              "type": "bytes32",
              "internalType": "bytes32"
            }
          ]
        },
        {
          "name": "sig1",
          "type": "bytes",
          "internalType": "bytes"
        },
        {
          "name": "proof2",
          "type": "tuple",
          "internalType": "struct TokenNetwork.BalanceProof",
          "components": [
            {
              "name": "channelId",
              "type": "bytes32",
              "internalType": "bytes32"
            },
            {
              "name": "nonce",
              "type": "uint256",
              "internalType": "uint256"
            },
            {
              "name": "transferredAmount",
              "type": "uint256",
              "internalType": "uint256"
            },
            {
              "name": "lockedAmount",
              "type": "uint256",
              "internalType": "uint256"
            },
            {
              "name": "locksRoot",
              "type": "bytes32",
              "internalType": "bytes32"
            }
          ]
        },
        {
          "name": "sig2",
          "type": "bytes",
          "internalType": "bytes"
        }
      ],
      "outputs": [],
      "stateMutability": "nonpayable"
    },
    {
      "type": "function",
      "name": "emergencyTokenRecovery",
      "inputs": [
        {
          "name": "_token",
          "type": "address",
          "internalType": "address"
        },
        {
          "name": "recipient",
          "type": "address",
          "internalType": "address"
        },
        {
          "name": "amount",
          "type": "uint256",
          "internalType": "uint256"
        }
      ],
      "outputs": [],
      "stateMutability": "nonpayable"
    },
    {
      "type": "function",
      "name": "forceCloseExpiredChannel",
      "inputs": [
        {
          "name": "channelId",
          "type": "bytes32",
          "internalType": "bytes32"
        }
      ],
      "outputs": [],
      "stateMutability": "nonpayable"
    },
    {
      "type": "function",
      "name": "getChannelDeposit",
      "inputs": [
        {
          "name": "channelId",
          "type": "bytes32",
          "internalType": "bytes32"
        },
        {
          "name": "participant",
          "type": "address",
          "internalType": "address"
        }
      ],
      "outputs": [
        {
          "name": "",
          "type": "uint256",
          "internalType": "uint256"
        }
      ],
      "stateMutability": "view"
    },
    {
      "type": "function",
      "name": "getChannelParticipants",
      "inputs": [
        {
          "name": "channelId",
          "type": "bytes32",
          "internalType": "bytes32"
        }
      ],
      "outputs": [
        {
          "name": "participant1",
          "type": "address",
          "internalType": "address"
        },
        {
          "name": "participant2",
          "type": "address",
          "internalType": "address"
        }
      ],
      "stateMutability": "view"
    },
    {
      "type": "function",
      "name": "getChannelState",
      "inputs": [
        {
          "name": "channelId",
          "type": "bytes32",
          "internalType": "bytes32"
        }
      ],
      "outputs": [
        {
          "name": "",
          "type": "uint8",
          "internalType": "enum TokenNetwork.ChannelState"
        }
      ],
      "stateMutability": "view"
    },
    {
      "type": "function",
      "name": "hasActiveChannel",
      "inputs": [
        {
          "name": "",
          "type": "bytes32",
          "internalType": "bytes32"
        }
      ],
      "outputs": [
        {
          "name": "",
          "type": "bool",
          "internalType": "bool"
        }
      ],
      "stateMutability": "view"
    },
    {
      "type": "function",
      "name": "maxDeposit",
      "inputs": [],
      "outputs": [
        {
          "name": "",
          "type": "uint256",
          "internalType": "uint256"
        }
      ],
      "stateMutability": "view"
    },
    {
      "type": "function",
      "name": "openChannel",
      "inputs": [
        {
          "name": "participant2",
          "type": "address",
          "internalType": "address"
        },
        {
          "name": "settlementTimeout",
          "type": "uint256",
          "internalType": "uint256"
        }
      ],
      "outputs": [
        {
          "name": "",
          "type": "bytes32",
          "internalType": "bytes32"
        }
      ],
      "stateMutability": "nonpayable"
    },
    {
      "type": "function",
      "name": "owner",
      "inputs": [],
      "outputs": [
        {
          "name": "",
          "type": "address",
          "internalType": "address"
        }
      ],
      "stateMutability": "view"
    },
    {
      "type": "function",
      "name": "pause",
      "inputs": [],
      "outputs": [],
      "stateMutability": "nonpayable"
    },
    {
      "type": "function",
      "name": "paused",
      "inputs": [],
      "outputs": [
        {
          "name": "",
          "type": "bool",
          "internalType": "bool"
        }
      ],
      "stateMutability": "view"
    },
    {
      "type": "function",
      "name": "renounceOwnership",
      "inputs": [],
      "outputs": [],
      "stateMutability": "nonpayable"
    },
    {
      "type": "function",
      "name": "setMaxDeposit",
      "inputs": [
        {
          "name": "newMax",
          "type": "uint256",
          "internalType": "uint256"
        }
      ],
      "outputs": [],
      "stateMutability": "nonpayable"
    },
    {
      "type": "function",
      "name": "setTotalDeposit",
      "inputs": [
        {
          "name": "channelId",
          "type": "bytes32",
          "internalType": "bytes32"
        },
        {
          "name": "participant",
          "type": "address",
          "internalType": "address"
        },
        {
          "name": "totalDeposit",
          "type": "uint256",
          "internalType": "uint256"
        }
      ],
      "outputs": [],
      "stateMutability": "nonpayable"
    },
    {
      "type": "function",
      "name": "settleChannel",
      "inputs": [
        {
          "name": "channelId",
          "type": "bytes32",
          "internalType": "bytes32"
        }
      ],
      "outputs": [],
      "stateMutability": "nonpayable"
    },
    {
      "type": "function",
      "name": "token",
      "inputs": [],
      "outputs": [
        {
          "name": "",
          "type": "address",
          "internalType": "address"
        }
      ],
      "stateMutability": "view"
    },
    {
      "type": "function",
      "name": "transferOwnership",
      "inputs": [
        {
          "name": "newOwner",
          "type": "address",
          "internalType": "address"
        }
      ],
      "outputs": [],
      "stateMutability": "nonpayable"
    },
    {
      "type": "function",
      "name": "unpause",
      "inputs": [],
      "outputs": [],
      "stateMutability": "nonpayable"
    },
    {
      "type": "function",
      "name": "updateNonClosingBalanceProof",
      "inputs": [
        {
          "name": "channelId",
          "type": "bytes32",
          "internalType": "bytes32"
        },
        {
          "name": "balanceProof",
          "type": "tuple",
          "internalType": "struct TokenNetwork.BalanceProof",
          "components": [
            {
              "name": "channelId",
              "type": "bytes32",
              "internalType": "bytes32"
            },
            {
              "name": "nonce",
              "type": "uint256",
              "internalType": "uint256"
            },
            {
              "name": "transferredAmount",
              "type": "uint256",
              "internalType": "uint256"
            },
            {
              "name": "lockedAmount",
              "type": "uint256",
              "internalType": "uint256"
            },
            {
              "name": "locksRoot",
              "type": "bytes32",
              "internalType": "bytes32"
            }
          ]
        },
        {
          "name": "signature",
          "type": "bytes",
          "internalType": "bytes"
        }
      ],
      "outputs": [],
      "stateMutability": "nonpayable"
    },
    {
      "type": "function",
      "name": "withdraw",
      "inputs": [
        {
          "name": "channelId",
          "type": "bytes32",
          "internalType": "bytes32"
        },
        {
          "name": "proof",
          "type": "tuple",
          "internalType": "struct TokenNetwork.WithdrawProof",
          "components": [
            {
              "name": "channelId",
              "type": "bytes32",
              "internalType": "bytes32"
            },
            {
              "name": "participant",
              "type": "address",
              "internalType": "address"
            },
            {
              "name": "amount",
              "type": "uint256",
              "internalType": "uint256"
            },
            {
              "name": "nonce",
              "type": "uint256",
              "internalType": "uint256"
            },
            {
              "name": "expiry",
              "type": "uint256",
              "internalType": "uint256"
            }
          ]
        },
        {
          "name": "counterpartySignature",
          "type": "bytes",
          "internalType": "bytes"
        }
      ],
      "outputs": [],
      "stateMutability": "nonpayable"
    },
    {
      "type": "event",
      "name": "ChannelClosed",
      "inputs": [
        {
          "name": "channelId",
          "type": "bytes32",
          "indexed": true,
          "internalType": "bytes32"
        },
        {
          "name": "closingParticipant",
          "type": "address",
          "indexed": true,
          "internalType": "address"
        },
        {
          "name": "nonce",
          "type": "uint256",
          "indexed": false,
          "internalType": "uint256"
        },
        {
          "name": "balanceHash",
          "type": "bytes32",
          "indexed": false,
          "internalType": "bytes32"
        }
      ],
      "anonymous": false
    },
    {
      "type": "event",
      "name": "ChannelDeposit",
      "inputs": [
        {
          "name": "channelId",
          "type": "bytes32",
          "indexed": true,
          "internalType": "bytes32"
        },
        {
          "name": "participant",
          "type": "address",
          "indexed": true,
          "internalType": "address"
        },
        {
          "name": "totalDeposit",
          "type": "uint256",
          "indexed": false,
          "internalType": "uint256"
        },
        {
          "name": "depositIncrease",
          "type": "uint256",
          "indexed": false,
          "internalType": "uint256"
        }
      ],
      "anonymous": false
    },
    {
      "type": "event",
      "name": "ChannelExpired",
      "inputs": [
        {
          "name": "channelId",
          "type": "bytes32",
          "indexed": true,
          "internalType": "bytes32"
        },
        {
          "name": "openedAt",
          "type": "uint256",
          "indexed": false,
          "internalType": "uint256"
        },
        {
          "name": "closedAt",
          "type": "uint256",
          "indexed": false,
          "internalType": "uint256"
        }
      ],
      "anonymous": false
    },
    {
      "type": "event",
      "name": "ChannelOpened",
      "inputs": [
        {
          "name": "channelId",
          "type": "bytes32",
          "indexed": true,
          "internalType": "bytes32"
        },
        {
          "name": "participant1",
          "type": "address",
          "indexed": true,
          "internalType": "address"
        },
        {
          "name": "participant2",
          "type": "address",
          "indexed": true,
          "internalType": "address"
        },
        {
          "name": "settlementTimeout",
          "type": "uint256",
          "indexed": false,
          "internalType": "uint256"
        }
      ],
      "anonymous": false
    },
    {
      "type": "event",
      "name": "ChannelSettled",
      "inputs": [
        {
          "name": "channelId",
          "type": "bytes32",
          "indexed": true,
          "internalType": "bytes32"
        },
        {
          "name": "participant1Amount",
          "type": "uint256",
          "indexed": false,
          "internalType": "uint256"
        },
        {
          "name": "participant2Amount",
          "type": "uint256",
          "indexed": false,
          "internalType": "uint256"
        }
      ],
      "anonymous": false
    },
    {
      "type": "event",
      "name": "CooperativeSettlement",
      "inputs": [
        {
          "name": "channelId",
          "type": "bytes32",
          "indexed": true,
          "internalType": "bytes32"
        },
        {
          "name": "participant1Amount",
          "type": "uint256",
          "indexed": false,
          "internalType": "uint256"
        },
        {
          "name": "participant2Amount",
          "type": "uint256",
          "indexed": false,
          "internalType": "uint256"
        }
      ],
      "anonymous": false
    },
    {
      "type": "event",
      "name": "EmergencyTokenRecovery",
      "inputs": [
        {
          "name": "token",
          "type": "address",
          "indexed": true,
          "internalType": "address"
        },
        {
          "name": "recipient",
          "type": "address",
          "indexed": true,
          "internalType": "address"
        },
        {
          "name": "amount",
          "type": "uint256",
          "indexed": false,
          "internalType": "uint256"
        }
      ],
      "anonymous": false
    },
    {
      "type": "event",
      "name": "MaxDepositUpdated",
      "inputs": [
        {
          "name": "oldMax",
          "type": "uint256",
          "indexed": false,
          "internalType": "uint256"
        },
        {
          "name": "newMax",
          "type": "uint256",
          "indexed": false,
          "internalType": "uint256"
        }
      ],
      "anonymous": false
    },
    {
      "type": "event",
      "name": "NonClosingBalanceProofUpdated",
      "inputs": [
        {
          "name": "channelId",
          "type": "bytes32",
          "indexed": true,
          "internalType": "bytes32"
        },
        {
          "name": "participant",
          "type": "address",
          "indexed": true,
          "internalType": "address"
        },
        {
          "name": "nonce",
          "type": "uint256",
          "indexed": false,
          "internalType": "uint256"
        },
        {
          "name": "balanceHash",
          "type": "bytes32",
          "indexed": false,
          "internalType": "bytes32"
        }
      ],
      "anonymous": false
    },
    {
      "type": "event",
      "name": "OwnershipTransferred",
      "inputs": [
        {
          "name": "previousOwner",
          "type": "address",
          "indexed": true,
          "internalType": "address"
        },
        {
          "name": "newOwner",
          "type": "address",
          "indexed": true,
          "internalType": "address"
        }
      ],
      "anonymous": false
    },
    {
      "type": "event",
      "name": "Paused",
      "inputs": [
        {
          "name": "account",
          "type": "address",
          "indexed": false,
          "internalType": "address"
        }
      ],
      "anonymous": false
    },
    {
      "type": "event",
      "name": "TokenRemovedFromWhitelist",
      "inputs": [
        {
          "name": "token",
          "type": "address",
          "indexed": true,
          "internalType": "address"
        }
      ],
      "anonymous": false
    },
    {
      "type": "event",
      "name": "TokenWhitelisted",
      "inputs": [
        {
          "name": "token",
          "type": "address",
          "indexed": true,
          "internalType": "address"
        }
      ],
      "anonymous": false
    },
    {
      "type": "event",
      "name": "Unpaused",
      "inputs": [
        {
          "name": "account",
          "type": "address",
          "indexed": false,
          "internalType": "address"
        }
      ],
      "anonymous": false
    },
    {
      "type": "event",
      "name": "Withdrawal",
      "inputs": [
        {
          "name": "channelId",
          "type": "bytes32",
          "indexed": true,
          "internalType": "bytes32"
        },
        {
          "name": "participant",
          "type": "address",
          "indexed": true,
          "internalType": "address"
        },
        {
          "name": "amount",
          "type": "uint256",
          "indexed": false,
          "internalType": "uint256"
        },
        {
          "name": "nonce",
          "type": "uint256",
          "indexed": false,
          "internalType": "uint256"
        }
      ],
      "anonymous": false
    },
    {
      "type": "error",
      "name": "ChallengeExpired",
      "inputs": []
    },
    {
      "type": "error",
      "name": "ChallengeNotExpired",
      "inputs": []
    },
    {
      "type": "error",
      "name": "ChannelAlreadyExists",
      "inputs": []
    },
    {
      "type": "error",
      "name": "ChannelAlreadySettled",
      "inputs": []
    },
    {
      "type": "error",
      "name": "ChannelNotExpired",
      "inputs": [
        {
          "name": "expiryTime",
          "type": "uint256",
          "internalType": "uint256"
        }
      ]
    },
    {
      "type": "error",
      "name": "ChannelNotFound",
      "inputs": []
    },
    {
      "type": "error",
      "name": "ContractPaused",
      "inputs": []
    },
    {
      "type": "error",
      "name": "CooperativeSettlementFailed",
      "inputs": []
    },
    {
      "type": "error",
      "name": "DepositExceedsMaximum",
      "inputs": [
        {
          "name": "requested",
          "type": "uint256",
          "internalType": "uint256"
        },
        {
          "name": "maximum",
          "type": "uint256",
          "internalType": "uint256"
        }
      ]
    },
    {
      "type": "error",
      "name": "DepositFailed",
      "inputs": []
    },
    {
      "type": "error",
      "name": "ECDSAInvalidSignature",
      "inputs": []
    },
    {
      "type": "error",
      "name": "ECDSAInvalidSignatureLength",
      "inputs": [
        {
          "name": "length",
          "type": "uint256",
          "internalType": "uint256"
        }
      ]
    },
    {
      "type": "error",
      "name": "ECDSAInvalidSignatureS",
      "inputs": [
        {
          "name": "s",
          "type": "bytes32",
          "internalType": "bytes32"
        }
      ]
    },
    {
      "type": "error",
      "name": "EnforcedPause",
      "inputs": []
    },
    {
      "type": "error",
      "name": "ExpectedPause",
      "inputs": []
    },
    {
      "type": "error",
      "name": "InsufficientBalanceChange",
      "inputs": []
    },
    {
      "type": "error",
      "name": "InsufficientDepositForWithdrawal",
      "inputs": []
    },
    {
      "type": "error",
      "name": "InvalidBalanceProof",
      "inputs": []
    },
    {
      "type": "error",
      "name": "InvalidChannelState",
      "inputs": []
    },
    {
      "type": "error",
      "name": "InvalidDeposit",
      "inputs": []
    },
    {
      "type": "error",
      "name": "InvalidParticipant",
      "inputs": []
    },
    {
      "type": "error",
      "name": "InvalidSettlementTimeout",
      "inputs": []
    },
    {
      "type": "error",
      "name": "InvalidTransferredAmount",
      "inputs": []
    },
    {
      "type": "error",
      "name": "InvalidWithdrawalProof",
      "inputs": []
    },
    {
      "type": "error",
      "name": "NonceMismatch",
      "inputs": [
        {
          "name": "nonce1",
          "type": "uint256",
          "internalType": "uint256"
        },
        {
          "name": "nonce2",
          "type": "uint256",
          "internalType": "uint256"
        }
      ]
    },
    {
      "type": "error",
      "name": "OnlyNonCloser",
      "inputs": []
    },
    {
      "type": "error",
      "name": "OwnableInvalidOwner",
      "inputs": [
        {
          "name": "owner",
          "type": "address",
          "internalType": "address"
        }
      ]
    },
    {
      "type": "error",
      "name": "OwnableUnauthorizedAccount",
      "inputs": [
        {
          "name": "account",
          "type": "address",
          "internalType": "address"
        }
      ]
    },
    {
      "type": "error",
      "name": "RecoveryNotAllowedWhenActive",
      "inputs": []
    },
    {
      "type": "error",
      "name": "ReentrancyGuardReentrantCall",
      "inputs": []
    },
    {
      "type": "error",
      "name": "SafeERC20FailedOperation",
      "inputs": [
        {
          "name": "token",
          "type": "address",
          "internalType": "address"
        }
      ]
    },
    {
      "type": "error",
      "name": "SettlementTimeoutTooShort",
      "inputs": [
        {
          "name": "provided",
          "type": "uint256",
          "internalType": "uint256"
        },
        {
          "name": "minimum",
          "type": "uint256",
          "internalType": "uint256"
        }
      ]
    },
    {
      "type": "error",
      "name": "StaleBalanceProof",
      "inputs": []
    },
    {
      "type": "error",
      "name": "TokenNotWhitelisted",
      "inputs": [
        {
          "name": "token",
          "type": "address",
          "internalType": "address"
        }
      ]
    },
    {
      "type": "error",
      "name": "UnauthorizedDeposit",
      "inputs": []
    },
    {
      "type": "error",
      "name": "WithdrawalProofExpired",
      "inputs": []
    }
  ],
  "bytecode": {
    "object": "0x60c0346200020c576001600160401b0390601f6200213038819003918201601f1916830192919084841183851017620002105781602092849260409687528339810103126200020c57516001600160a01b0380821691908282036200020c573315620001f5575f8054336001600160a01b03198216811783558651929592939091167f8be0079c531659141344cd1fd0a4f28419497f9722a3daafe3b4186f6b6457e08680a360017f9b779b17422d0df92223018b32b4d1fa46e071723d6817e2486d003becc55f005569d3c21bcecceda100000060035515620001e65750608052600e60208351620000f28162000224565b828152016d14185e5b595b9d10da185b9b995b60921b815220916001602082516200011d8162000224565b82815201603160f81b8152209181519260208401947f8b73c3c69bb8fe3d512ecc4cf759cc79239f7b179b0ffacaa9a75d522b39400f86528385015260608401524660808401523060a084015260a0835260c083019483861090861117620001d2575083905251902060a052611eef908162000241823960805181818161031c01528181610350015281816103a7015281816108da015261116c015260a0518181816107d4015281816115800152611ce30152f35b634e487b7160e01b81526041600452602490fd5b6350a2e21f60e11b8152600490fd5b8351631e4fbdf760e01b81525f6004820152602490fd5b5f80fd5b634e487b7160e01b5f52604160045260245ffd5b604081019081106001600160401b03821117620002105760405256fe6080604081815260049081361015610015575f80fd5b5f92833560e01c908163011aa7f7146118ec5750806304a7950c146118b157806324f453d1146116b0578063276bfc681461166b5780632e9637e0146115a35780633644e51514611568578063365473c61461136d57806336bcdb80146110b45780633f4ba83a1461105b578063404393671461102f57806354c3a19214610f995780635a10474614610f7a5780635c975abb14610f555780636083e59a14610f36578063715018a614610ed95780637a7ebd7b14610e665780638456cb5914610e075780638da5cb5b14610ddf57806391819eae14610da4578063ba5b088014610d68578063bb371fdd14610d15578063c6de000514610cf7578063c76701c314610a12578063d18da8b1146109db578063db96157d146109be578063e36061211461064e578063f2fde38b146105c7578063fa29f752146103da578063fc0c546a146103925763fd3d31991461016b575f80fd5b3461038e576020908160031936011261038a57823592610189611b05565b610191611ab7565b61019a84611bd3565b6101a384611c3d565b83855260018352818520906101c081830154600284015490611af8565b42111561037c57600160a01b6001900393848354169480600185015416938689526006810183528589205494808a52868a205497808b52878b2060050154828c52808c8a812060050154809a8583528c808420600101549388815220600101549461022a91611af8565b9061023491611ad7565b9061023e91611ad7565b9a8b9961024a91611af8565b9061025491611ad7565b9061025e91611ad7565b9560038794019060ff1991828154166003179055895187810190806102a1878785906028926001600160601b0319809260601b16835260601b1660148201520190565b03601f19810182526102b39082611986565b5190208d528652888c20908154169055861515987ff94fb5c0628a82dc90648e8dc5e983f632633b0d26603d64e8cc042ca0790aa499610349575b505081610316575b5050508351928352820152a260015f80516020611e9a8339815191525580f35b610341927f000000000000000000000000000000000000000000000000000000000000000016611b34565b5f82816102f6565b61037591857f000000000000000000000000000000000000000000000000000000000000000016611b34565b5f866102ee565b8251630a8f83ff60e11b8152fd5b8380fd5b8280fd5b8382346103d657816003193601126103d657517f00000000000000000000000000000000000000000000000000000000000000006001600160a01b03168152602090f35b5080fd5b509190346103d6576103eb366119fe565b6103f6959195611b05565b6103fe611ab7565b61040783611bd3565b61041083611c07565b8285526020906001825282862060018060a01b0395868254168033148015806105b7575b6105a757156105a1575086600183015416925b868a5103610592578361045a918b611c5a565b156105845760068201963389528785526003868a20015493858b0194855111156105745716885286845284882054858a01908151116105655760057fd5957384eab5a0d19edc418bd26b5a30bf723c432b8ec504bb3153db8d8f92179798999a338c528a8752878c20600281019360ff19946001868254161790558751600383015551928391015561052060806060830151920151916105128a519384928b8401968791606093918352602083015260408201520190565b03601f198101835282611986565b51902098338b52855281868b200198895560026003840191825416179055429101555194549082519586528501523393a360015f80516020611e9a8339815191525580f35b50845163175d1f0760e11b8152fd5b865163045b678d60e41b81528390fd5b8451631cfb46fb60e21b8152fd5b508451631cfb46fb60e21b8152fd5b92610447565b86516350a2e21f60e11b81528390fd5b5088600185015416331415610434565b50903461038e57602036600319011261038e576105e261190a565b906105eb611a8c565b6001600160a01b0391821692831561063857505082546001600160a01b0319811683178455167f8be0079c531659141344cd1fd0a4f28419497f9722a3daafe3b4186f6b6457e08380a380f35b51631e4fbdf760e01b8152908101849052602490fd5b508290346103d65760e03660031901126103d65782359060a036602319011261038e5780519161067d8361193a565b60243583526001600160a01b039160443583811681036109ba576020808601918252828601946064358652606087019260843584526080880160a435815260c43567ffffffffffffffff81116109b6576106da9036908d016119a8565b986106e3611b05565b6106eb611ab7565b6106f488611bd3565b6106fd88611c07565b878b526001998a8652878c20928585511633036109a657858551168c878654169188838214159283610996575b505050610986578a84510361097657815142116109665786928a8f8f8f90958d8d938961081e99610815998f8390511693508084145f1461095d57508d0154169a5b51935191519251938651958601967f790c1ef987915cc88f92b5011444b18410e1b7d625566d2de6710af52d360e0488528601526060850152608084015260a083015260c082015260c081526107c18161196a565b5190208b5161190160f01b8b82019081527f00000000000000000000000000000000000000000000000000000000000000006002820152602281019290925261080d8160428401610512565b519020611d46565b90929192611e0e565b16848115159283610951575b5050501561094157600601828251168a528084526003868b2001548551111561093157828251168a5280845261086f868b2054848451168c528a888d20015490611ad7565b8851116109215789899a9b506108b9899a887f2865d567636cfb8b64e349af19627e3ef92dc0c2cabfe3b1fd3e659425938e8f9a9b51938787511681528589522001918254611af8565b9055845190838351168c5284526003868c2001556108ff82825116895190847f000000000000000000000000000000000000000000000000000000000000000016611b34565b511695519151908351928352820152a35f80516020611e9a8339815191525580f35b8551632a06920160e11b81528b90fd5b855163045b678d60e41b81528b90fd5b8551632e1aaf2760e21b81528b90fd5b161490508c848161082a565b9150509a61076c565b8951631e7c2f1f60e11b81528f90fd5b8951632e1aaf2760e21b81528f90fd5b89516350a2e21f60e11b81528f90fd5b88015416141590505f888f61072a565b88516350a2e21f60e11b81528e90fd5b8a80fd5b8580fd5b8382346103d657816003193601126103d65760209051610e108152f35b50903461038e57602036600319011261038e5760038260209460ff933581526001865220015416905190610a0e81611a6e565b8152f35b509190346103d6576101a03660031901126103d65780359060a036602319011261038e57835193610a428561193a565b6024358552602091828601926044358452828701966064358852608435606082015260a435608082015260c4359467ffffffffffffffff95868111610cf357610a8e90369086016119a8565b9160a03660e3190112610cf357855191610aa78361193a565b60e43583528483019061010435825287840198610124358a5261014435606086015261016435608086015261018435908111610cef5790610aee8b94939236908a016119a8565b610af6611b05565b610afe611ab7565b610b0785611bd3565b610b1085611c07565b848d5260018852898d209560018060a01b039788885416958960018a015416978082511490811591610ce3575b50610cd357610b4d918791611c5a565b15610cc357610b5d918691611c5a565b15610cb35751905190818103610c97575050899a818b98999a9b526006840186528888205499838952898920549a838a528a808b20600101549a868152206001015499610ba991611ad7565b8251610bb491611ad7565b8151610bbf91611af8565b9a8b99610bcb91611ad7565b9051610bd691611ad7565b9051610be191611af8565b9560038794019060ff199182815416600317905589518781019080610c24878785906028926001600160601b0319809260601b16835260601b1660148201520190565b03601f1981018252610c369082611986565b5190208d528652888c20908154169055861515987f581b8fd20934211904e9695ac67a02df716073c68053f752c69669da8e833cee9961034957505081610316575050508351928352820152a260015f80516020611e9a8339815191525580f35b60449188918a5192630f0f26af60e01b84528301526024820152fd5b8851631cfb46fb60e21b81528890fd5b8a51631cfb46fb60e21b81528a90fd5b8c51631cfb46fb60e21b81528c90fd5b9050835114158f610b3d565b8b80fd5b8880fd5b8382346103d657816003193601126103d6576020905162278d008152f35b503461038e57602036600319011261038e577f78131f623b32212db92dadc6f203f2aeb863f71ce1a61b8eafc1ece42816c5ba9135610d52611a8c565b600354908060035582519182526020820152a180f35b50903461038e57602036600319011261038e5791819235815260016020522060018060a01b036001818354169201541682519182526020820152f35b8382346103d657816003193601126103d657602090517f790c1ef987915cc88f92b5011444b18410e1b7d625566d2de6710af52d360e048152f35b8382346103d657816003193601126103d657905490516001600160a01b039091168152602090f35b8382346103d657816003193601126103d65760207f62e78cea01bee320cd4e420270b5ea74000d11b0c9f74754ebdbfc544b05a25891610e45611a8c565b610e4d611ab7565b835460ff60a01b1916600160a01b17845551338152a180f35b503461038e57602036600319011261038e578060c0938335815260016020522060018060a01b0392838254169360018301541692600283015490600560ff600386015416938501549401549481519687526020870152850152610ec881611a6e565b6060840152608083015260a0820152f35b8334610f335780600319360112610f3357610ef2611a8c565b80546001600160a01b03198116825581906001600160a01b03167f8be0079c531659141344cd1fd0a4f28419497f9722a3daafe3b4186f6b6457e08280a380f35b80fd5b8382346103d657816003193601126103d6576020906003549051908152f35b8382346103d657816003193601126103d65760ff6020925460a01c1690519015158152f35b8382346103d657816003193601126103d6576020906002549051908152f35b503461038e57606036600319011261038e57610fb361190a565b610fbb611924565b9160443591610fc8611a8c565b610fd0611bb2565b6001600160a01b03848116959091908615611021575091611019847f238062e33e7062c4aeccb2acac43aecc0b1a1ca891a5bc84a689f2272cb39a439593602095169687611b34565b51908152a380f35b83516350a2e21f60e11b8152fd5b50903461038e57602036600319011261038e57816020938260ff93358252855220541690519015158152f35b8382346103d657816003193601126103d65760207f5db9ee0a495bf2e6ff9c91a7834c1ba4fdd244a5e8aa4e537bd38aeae4b073aa91611099611a8c565b6110a1611bb2565b835460ff60a01b1916845551338152a180f35b50903461038e57606036600319011261038e578035906110d2611924565b92604435936110df611b05565b6110e7611ab7565b6110f084611bd3565b6110f984611c07565b6001600160a01b03908116943386900361135e5784875260209160018352838820818154168814158061134e575b61133e5760060194878952858452848920549283811061132f5760035480821161131457508361115691611ad7565b85516370a0823160e01b808252308285015290937f00000000000000000000000000000000000000000000000000000000000000001692918685602481875afa94851561130a578c956112db575b508751906323b872dd60e01b8d528b845230602452604452868c60648180885af160018d51148116156112bc575b8189528c606052156112a75750906024869288519485938492835230908301525afa90811561129d57899161126c575b509461123261124e927f6f073c162678018af03c51e37d715223e124b815e45b64fa9be6a65464f28fe597611ad7565b92839161123f8383611af8565b908a8c528652868b2055611af8565b918351928352820152a360015f80516020611e9a8339815191525580f35b9590508386813d8311611296575b6112848183611986565b81010312610cf3579451611232611202565b503d61127a565b85513d8b823e3d90fd5b635274afe760e01b8152828101849052602490fd5b60018115166112d257843b15153d1516166111d2565b503d8c823e3d90fd5b9094508681813d8311611303575b6112f38183611986565b81010312610cef5751935f6111a4565b503d6112e9565b88513d8e823e3d90fd5b60449291875192633399ae1560e21b84528301526024820152fd5b508451635972996f60e11b8152fd5b84516350a2e21f60e11b81528690fd5b5081600182015416881415611127565b50505163673e66cb60e11b8152fd5b508290346103d65761137e366119fe565b929094611389611b05565b611391611ab7565b61139a83611bd3565b6113a383611c3d565b828552602090600182528286206113c282820154600283015490611af8565b4211611559576006810160018060a01b03918281541692838a5282865260ff6002888c200154165f1461154b578084925b83821695808703611543575060010154165b169788330361153357878b51036115235790611421918b611c5a565b15611513578188528084526003858920015491848a01928351111561150357885280845284882054858a01908151116114f3577fa74d11e70725a216b7835e4eccc704900e38620c7254d1b5fe3811f064a42446969798996005918451908b8d52848852888d209160038301555192839101556114c4608060608301519201519161051289519384928a8401968791606093918352602083015260408201520190565b519020928391898b528552858a20015551918351928352820152a360015f80516020611e9a8339815191525580f35b855163175d1f0760e11b81528490fd5b855163045b678d60e41b81528490fd5b8451631cfb46fb60e21b81528390fd5b8651631cfb46fb60e21b81528590fd5b8651633a065c2960e01b81528590fd5b915050611405565b8080600184015416926113f3565b50825163f06506c560e01b8152fd5b8382346103d657816003193601126103d657602090517f00000000000000000000000000000000000000000000000000000000000000008152f35b508290346103d65760203660031901126103d6578235906115c2611ab7565b6115cb82611bd3565b6115d482611c07565b81835260016020528083206005810154906301e133808201808311611658578042111561164257507ffd9b55c0e08d8fdf034456030d4e37892c6da76a0ba7698536f903d92bce1ac593949560038201600260ff19825416179055429101558151908152426020820152a280f35b866024918551916302ed2b9960e31b8352820152fd5b634e487b7160e01b865260118752602486fd5b50903461038e578160031936011261038e57602092829161168a611924565b90358252600185528282206001600160a01b039091168252600601845220549051908152f35b508290346103d657806003193601126103d6576116cb61190a565b6024356116d6611ab7565b6001600160a01b0390818316908382156118a1573383146118a157610e1082108015611895575b611885573392831161187c575b508451966020978881019061174181610512898886906028926001600160601b0319809260601b16835260601b1660148201520190565b5190209687815281895260ff878220541661186d57600254978751948a860190878116976001600160601b0319809260601b16835289169860601b16603487015289604887015260488652608086019580871067ffffffffffffffff88111761185a57868a52519020985f19811461184757928995927f448d27f1fe12f92a2070111296e68fd6ef0a01c0e05bf5819eda0dbcf267bf3d959260018d960160025581528185528981209160ff1992600184825416179055878252600186528a8220926001600160601b0360a01b8a818654161785558b6001860191825416179055846002850155600160038501918254161790558201556005429101558152a451908152f35b634e487b7160e01b835260118452602483fd5b634e487b7160e01b845260418552602484fd5b508551630ec0f14960e01b8152fd5b9193508761170a565b855163579d2e9960e01b81528890fd5b5062278d0082116116fd565b85516350a2e21f60e11b81528890fd5b8382346103d657816003193601126103d657602090517f716df000aa2a680ba0826f710c1641c4d9fbef21b69b995e39fe4dd74da178cb8152f35b8490346103d657816003193601126103d657806301e1338060209252f35b600435906001600160a01b038216820361192057565b5f80fd5b602435906001600160a01b038216820361192057565b60a0810190811067ffffffffffffffff82111761195657604052565b634e487b7160e01b5f52604160045260245ffd5b60e0810190811067ffffffffffffffff82111761195657604052565b90601f8019910116810190811067ffffffffffffffff82111761195657604052565b81601f820112156119205780359067ffffffffffffffff821161195657604051926119dd601f8401601f191660200185611986565b8284526020838301011161192057815f926020809301838601378301015290565b60e0600319820112611920576004359160a060231983011261192057604051611a268161193a565b602435815260443560208201526064356040820152608435606082015260a43560808201529160c4359067ffffffffffffffff821161192057611a6b916004016119a8565b90565b60041115611a7857565b634e487b7160e01b5f52602160045260245ffd5b5f546001600160a01b03163303611a9f57565b60405163118cdaa760e01b8152336004820152602490fd5b60ff5f5460a01c16611ac557565b60405163d93c066560e01b8152600490fd5b91908203918211611ae457565b634e487b7160e01b5f52601160045260245ffd5b91908201809211611ae457565b5f80516020611e9a8339815191526002815414611b225760029055565b604051633ee5aeb560e01b8152600490fd5b60405163a9059cbb60e01b5f9081526001600160a01b039384166004526024949094529260209060448180855af160015f5114811615611b93575b8360405215611b7d57505050565b635274afe760e01b835216600482015260249150fd5b6001811516611ba957813b15153d151616611b6f565b833d5f823e3d90fd5b60ff5f5460a01c1615611bc157565b604051638dfc202b60e01b8152600490fd5b5f52600160205260ff600360405f20015416611bee81611a6e565b15611bf557565b604051630781f76560e21b8152600490fd5b5f526001602052600160ff600360405f20015416611c2481611a6e565b03611c2b57565b60405163f806e9d960e01b8152600490fd5b5f526001602052600260ff600360405f20015416611c2481611a6e565b611d1c916108159180519060208101519060408101519060806060820151910151916040519360208501957f716df000aa2a680ba0826f710c1641c4d9fbef21b69b995e39fe4dd74da178cb875260408601526060850152608084015260a083015260c082015260c08152611cce8161196a565b51902060405161190160f01b602082019081527f00000000000000000000000000000000000000000000000000000000000000006022830152604282019290925261080d8160628101610512565b6001600160a01b039081168015159290919083611d3a575b50505090565b161490505f8080611d34565b8151919060418303611d7657611d6f9250602082015190606060408401519301515f1a90611d80565b9192909190565b50505f9160029190565b91907f7fffffffffffffffffffffffffffffff5d576e7357a4501ddfe92f46681b20a08411611e0357926020929160ff6080956040519485521684840152604083015260608201525f92839182805260015afa15611df75780516001600160a01b03811615611dee57918190565b50809160019190565b604051903d90823e3d90fd5b5050505f9160039190565b611e1781611a6e565b80611e20575050565b611e2981611a6e565b60018103611e435760405163f645eedf60e01b8152600490fd5b611e4c81611a6e565b60028103611e6d5760405163fce698f760e01b815260048101839052602490fd5b80611e79600392611a6e565b14611e815750565b602490604051906335e2f38360e21b82526004820152fdfe9b779b17422d0df92223018b32b4d1fa46e071723d6817e2486d003becc55f00a264697066735822122026bb7f073521ee69784b49606d273b7fcea151b0734883dc08bf98c6d17235ec64736f6c63430008140033",
    "linkReferences": {}
  },
  "methodIdentifiers": {
    "BALANCE_PROOF_TYPEHASH()": "04a7950c",
    "DOMAIN_SEPARATOR()": "3644e515",
    "MAX_CHANNEL_LIFETIME()": "011aa7f7",
    "MAX_SETTLEMENT_TIMEOUT()": "c6de0005",
    "MIN_SETTLEMENT_TIMEOUT()": "db96157d",
    "WITHDRAW_PROOF_TYPEHASH()": "91819eae",
    "channelCounter()": "5a104746",
    "channels(bytes32)": "7a7ebd7b",
    "closeChannel(bytes32,(bytes32,uint256,uint256,uint256,bytes32),bytes)": "fa29f752",
    "cooperativeSettle(bytes32,(bytes32,uint256,uint256,uint256,bytes32),bytes,(bytes32,uint256,uint256,uint256,bytes32),bytes)": "c76701c3",
    "emergencyTokenRecovery(address,address,uint256)": "54c3a192",
    "forceCloseExpiredChannel(bytes32)": "2e9637e0",
    "getChannelDeposit(bytes32,address)": "276bfc68",
    "getChannelParticipants(bytes32)": "ba5b0880",
    "getChannelState(bytes32)": "d18da8b1",
    "hasActiveChannel(bytes32)": "40439367",
    "maxDeposit()": "6083e59a",
    "openChannel(address,uint256)": "24f453d1",
    "owner()": "8da5cb5b",
    "pause()": "8456cb59",
    "paused()": "5c975abb",
    "renounceOwnership()": "715018a6",
    "setMaxDeposit(uint256)": "bb371fdd",
    "setTotalDeposit(bytes32,address,uint256)": "36bcdb80",
    "settleChannel(bytes32)": "fd3d3199",
    "token()": "fc0c546a",
    "transferOwnership(address)": "f2fde38b",
    "unpause()": "3f4ba83a",
    "updateNonClosingBalanceProof(bytes32,(bytes32,uint256,uint256,uint256,bytes32),bytes)": "365473c6",
    "withdraw(bytes32,(bytes32,address,uint256,uint256,uint256),bytes)": "e3606121"
  },
  "id": 36
}